{
  "_format": "hh-sol-artifact-1",
  "contractName": "SPCredentials",
  "sourceName": "contracts/SPCredentials.sol",
  "abi": [
    {
      "inputs": [],
      "stateMutability": "nonpayable",
      "type": "constructor"
    },
    {
      "anonymous": false,
      "inputs": [
        {
          "indexed": true,
          "internalType": "address",
          "name": "owner",
          "type": "address"
        },
        {
          "indexed": true,
          "internalType": "address",
          "name": "approved",
          "type": "address"
        },
        {
          "indexed": true,
          "internalType": "uint256",
          "name": "tokenId",
          "type": "uint256"
        }
      ],
      "name": "Approval",
      "type": "event"
    },
    {
      "anonymous": false,
      "inputs": [
        {
          "indexed": true,
          "internalType": "address",
          "name": "owner",
          "type": "address"
        },
        {
          "indexed": true,
          "internalType": "address",
          "name": "operator",
          "type": "address"
        },
        {
          "indexed": false,
          "internalType": "bool",
          "name": "approved",
          "type": "bool"
        }
      ],
      "name": "ApprovalForAll",
      "type": "event"
    },
    {
      "anonymous": false,
      "inputs": [
        {
          "indexed": true,
          "internalType": "address",
          "name": "previousOwner",
          "type": "address"
        },
        {
          "indexed": true,
          "internalType": "address",
          "name": "newOwner",
          "type": "address"
        }
      ],
      "name": "OwnershipTransferred",
      "type": "event"
    },
    {
      "anonymous": false,
      "inputs": [
        {
          "indexed": false,
          "internalType": "address",
          "name": "account",
          "type": "address"
        }
      ],
      "name": "Paused",
      "type": "event"
    },
    {
      "anonymous": false,
      "inputs": [
        {
          "indexed": true,
          "internalType": "address",
          "name": "from",
          "type": "address"
        },
        {
          "indexed": true,
          "internalType": "address",
          "name": "to",
          "type": "address"
        },
        {
          "indexed": true,
          "internalType": "uint256",
          "name": "tokenId",
          "type": "uint256"
        }
      ],
      "name": "Transfer",
      "type": "event"
    },
    {
      "anonymous": false,
      "inputs": [
        {
          "indexed": false,
          "internalType": "address",
          "name": "account",
          "type": "address"
        }
      ],
      "name": "Unpaused",
      "type": "event"
    },
    {
      "inputs": [
        {
          "internalType": "address",
          "name": "to",
          "type": "address"
        },
        {
          "internalType": "uint256",
          "name": "tokenId",
          "type": "uint256"
        }
      ],
      "name": "approve",
      "outputs": [],
      "stateMutability": "nonpayable",
      "type": "function"
    },
    {
      "inputs": [
        {
          "internalType": "address",
          "name": "owner",
          "type": "address"
        }
      ],
      "name": "balanceOf",
      "outputs": [
        {
          "internalType": "uint256",
          "name": "",
          "type": "uint256"
        }
      ],
      "stateMutability": "view",
      "type": "function"
    },
    {
      "inputs": [
        {
          "internalType": "uint256",
          "name": "tokenId",
          "type": "uint256"
        },
        {
          "internalType": "string",
          "name": "_tokenURI",
          "type": "string"
        }
      ],
      "name": "changeTokenURI",
      "outputs": [],
      "stateMutability": "nonpayable",
      "type": "function"
    },
    {
      "inputs": [
        {
          "internalType": "uint256",
          "name": "tokenId",
          "type": "uint256"
        }
      ],
      "name": "getApproved",
      "outputs": [
        {
          "internalType": "address",
          "name": "",
          "type": "address"
        }
      ],
      "stateMutability": "view",
      "type": "function"
    },
    {
      "inputs": [],
      "name": "getNFTCollection",
      "outputs": [
        {
          "components": [
            {
              "internalType": "address",
              "name": "owner",
              "type": "address"
            },
            {
              "internalType": "string",
              "name": "tokenURI",
              "type": "string"
            },
            {
              "internalType": "uint256",
              "name": "tokenId",
              "type": "uint256"
            },
            {
              "internalType": "string",
              "name": "minerId",
              "type": "string"
            }
          ],
          "internalType": "struct SPCredentials.credentialERC721NFT[]",
          "name": "",
          "type": "tuple[]"
        }
      ],
      "stateMutability": "view",
      "type": "function"
    },
    {
      "inputs": [],
      "name": "getRegisteredMiners",
      "outputs": [
        {
          "components": [
            {
              "internalType": "string",
              "name": "minerId",
              "type": "string"
            },
            {
              "internalType": "address",
              "name": "owner",
              "type": "address"
            }
          ],
          "internalType": "struct SPCredentials.registeredMiner[]",
          "name": "",
          "type": "tuple[]"
        }
      ],
      "stateMutability": "view",
      "type": "function"
    },
    {
      "inputs": [
        {
          "internalType": "address",
          "name": "owner",
          "type": "address"
        },
        {
          "internalType": "address",
          "name": "operator",
          "type": "address"
        }
      ],
      "name": "isApprovedForAll",
      "outputs": [
        {
          "internalType": "bool",
          "name": "",
          "type": "bool"
        }
      ],
      "stateMutability": "view",
      "type": "function"
    },
    {
      "inputs": [],
      "name": "name",
      "outputs": [
        {
          "internalType": "string",
          "name": "",
          "type": "string"
        }
      ],
      "stateMutability": "view",
      "type": "function"
    },
    {
      "inputs": [
        {
          "internalType": "uint256",
          "name": "",
          "type": "uint256"
        }
      ],
      "name": "nftCollection",
      "outputs": [
        {
          "internalType": "address",
          "name": "owner",
          "type": "address"
        },
        {
          "internalType": "string",
          "name": "tokenURI",
          "type": "string"
        },
        {
          "internalType": "uint256",
          "name": "tokenId",
          "type": "uint256"
        },
        {
          "internalType": "string",
          "name": "minerId",
          "type": "string"
        }
      ],
      "stateMutability": "view",
      "type": "function"
    },
    {
      "inputs": [],
      "name": "owner",
      "outputs": [
        {
          "internalType": "address",
          "name": "",
          "type": "address"
        }
      ],
      "stateMutability": "view",
      "type": "function"
    },
    {
      "inputs": [
        {
          "internalType": "uint256",
          "name": "tokenId",
          "type": "uint256"
        }
      ],
      "name": "ownerOf",
      "outputs": [
        {
          "internalType": "address",
          "name": "",
          "type": "address"
        }
      ],
      "stateMutability": "view",
      "type": "function"
    },
    {
      "inputs": [],
      "name": "pause",
      "outputs": [],
      "stateMutability": "nonpayable",
      "type": "function"
    },
    {
      "inputs": [],
      "name": "paused",
      "outputs": [
        {
          "internalType": "bool",
          "name": "",
          "type": "bool"
        }
      ],
      "stateMutability": "view",
      "type": "function"
    },
    {
      "inputs": [
        {
          "internalType": "string",
          "name": "_minerId",
          "type": "string"
        },
        {
          "internalType": "address",
          "name": "_owner",
          "type": "address"
        }
      ],
      "name": "registerMinerWithPublickKey",
      "outputs": [],
      "stateMutability": "nonpayable",
      "type": "function"
    },
    {
      "inputs": [
        {
          "internalType": "uint256",
          "name": "",
          "type": "uint256"
        }
      ],
      "name": "registeredMinersCollection",
      "outputs": [
        {
          "internalType": "string",
          "name": "minerId",
          "type": "string"
        },
        {
          "internalType": "address",
          "name": "owner",
          "type": "address"
        }
      ],
      "stateMutability": "view",
      "type": "function"
    },
    {
      "inputs": [],
      "name": "renounceOwnership",
      "outputs": [],
      "stateMutability": "nonpayable",
      "type": "function"
    },
    {
      "inputs": [
        {
          "internalType": "address",
          "name": "to",
          "type": "address"
        },
        {
          "internalType": "string",
          "name": "_minerId",
          "type": "string"
        },
        {
          "internalType": "string",
          "name": "uri",
          "type": "string"
        }
      ],
      "name": "safeMint",
      "outputs": [],
      "stateMutability": "nonpayable",
      "type": "function"
    },
    {
      "inputs": [
        {
          "internalType": "address",
          "name": "from",
          "type": "address"
        },
        {
          "internalType": "address",
          "name": "to",
          "type": "address"
        },
        {
          "internalType": "uint256",
          "name": "tokenId",
          "type": "uint256"
        }
      ],
      "name": "safeTransferFrom",
      "outputs": [],
      "stateMutability": "nonpayable",
      "type": "function"
    },
    {
      "inputs": [
        {
          "internalType": "address",
          "name": "from",
          "type": "address"
        },
        {
          "internalType": "address",
          "name": "to",
          "type": "address"
        },
        {
          "internalType": "uint256",
          "name": "tokenId",
          "type": "uint256"
        },
        {
          "internalType": "bytes",
          "name": "data",
          "type": "bytes"
        }
      ],
      "name": "safeTransferFrom",
      "outputs": [],
      "stateMutability": "nonpayable",
      "type": "function"
    },
    {
      "inputs": [
        {
          "internalType": "address",
          "name": "operator",
          "type": "address"
        },
        {
          "internalType": "bool",
          "name": "approved",
          "type": "bool"
        }
      ],
      "name": "setApprovalForAll",
      "outputs": [],
      "stateMutability": "nonpayable",
      "type": "function"
    },
    {
      "inputs": [
        {
          "internalType": "bytes4",
          "name": "interfaceId",
          "type": "bytes4"
        }
      ],
      "name": "supportsInterface",
      "outputs": [
        {
          "internalType": "bool",
          "name": "",
          "type": "bool"
        }
      ],
      "stateMutability": "view",
      "type": "function"
    },
    {
      "inputs": [],
      "name": "symbol",
      "outputs": [
        {
          "internalType": "string",
          "name": "",
          "type": "string"
        }
      ],
      "stateMutability": "view",
      "type": "function"
    },
    {
      "inputs": [
        {
          "internalType": "uint256",
          "name": "tokenId",
          "type": "uint256"
        }
      ],
      "name": "tokenURI",
      "outputs": [
        {
          "internalType": "string",
          "name": "",
          "type": "string"
        }
      ],
      "stateMutability": "view",
      "type": "function"
    },
    {
      "inputs": [
        {
          "internalType": "address",
          "name": "from",
          "type": "address"
        },
        {
          "internalType": "address",
          "name": "to",
          "type": "address"
        },
        {
          "internalType": "uint256",
          "name": "tokenId",
          "type": "uint256"
        }
      ],
      "name": "transferFrom",
      "outputs": [],
      "stateMutability": "nonpayable",
      "type": "function"
    },
    {
      "inputs": [
        {
          "internalType": "address",
          "name": "newOwner",
          "type": "address"
        }
      ],
      "name": "transferOwnership",
      "outputs": [],
      "stateMutability": "nonpayable",
      "type": "function"
    },
    {
      "inputs": [],
      "name": "unpause",
      "outputs": [],
      "stateMutability": "nonpayable",
      "type": "function"
    }
  ],
  "bytecode": "0x60806040523480156200001157600080fd5b506040518060400160405280600d81526020017f535043726564656e7469616c73000000000000000000000000000000000000008152506040518060400160405280600381526020017f535043000000000000000000000000000000000000000000000000000000000081525081600090816200008f91906200042d565b508060019081620000a191906200042d565b5050506000600760006101000a81548160ff021916908315150217905550620000df620000d3620000e560201b60201c565b620000ed60201b60201c565b62000514565b600033905090565b6000600760019054906101000a900473ffffffffffffffffffffffffffffffffffffffff16905081600760016101000a81548173ffffffffffffffffffffffffffffffffffffffff021916908373ffffffffffffffffffffffffffffffffffffffff1602179055508173ffffffffffffffffffffffffffffffffffffffff168173ffffffffffffffffffffffffffffffffffffffff167f8be0079c531659141344cd1fd0a4f28419497f9722a3daafe3b4186f6b6457e060405160405180910390a35050565b600081519050919050565b7f4e487b7100000000000000000000000000000000000000000000000000000000600052604160045260246000fd5b7f4e487b7100000000000000000000000000000000000000000000000000000000600052602260045260246000fd5b600060028204905060018216806200023557607f821691505b6020821081036200024b576200024a620001ed565b5b50919050565b60008190508160005260206000209050919050565b60006020601f8301049050919050565b600082821b905092915050565b600060088302620002b57fffffffffffffffffffffffffffffffffffffffffffffffffffffffffffffffff8262000276565b620002c1868362000276565b95508019841693508086168417925050509392505050565b6000819050919050565b6000819050919050565b60006200030e620003086200030284620002d9565b620002e3565b620002d9565b9050919050565b6000819050919050565b6200032a83620002ed565b62000342620003398262000315565b84845462000283565b825550505050565b600090565b620003596200034a565b620003668184846200031f565b505050565b5b818110156200038e57620003826000826200034f565b6001810190506200036c565b5050565b601f821115620003dd57620003a78162000251565b620003b28462000266565b81016020851015620003c2578190505b620003da620003d18562000266565b8301826200036b565b50505b505050565b600082821c905092915050565b60006200040260001984600802620003e2565b1980831691505092915050565b60006200041d8383620003ef565b9150826002028217905092915050565b6200043882620001b3565b67ffffffffffffffff811115620004545762000453620001be565b5b6200046082546200021c565b6200046d82828562000392565b600060209050601f831160018114620004a5576000841562000490578287015190505b6200049c85826200040f565b8655506200050c565b601f198416620004b58662000251565b60005b82811015620004df57848901518255600182019150602085019450602081019050620004b8565b86831015620004ff5784890151620004fb601f891682620003ef565b8355505b6001600288020188555050505b505050505050565b61405380620005246000396000f3fe608060405234801561001057600080fd5b506004361061018e5760003560e01c80637fb3a9a2116100de578063a22cb46511610097578063e985e9c511610071578063e985e9c51461045f578063eca81d421461048f578063f2fde38b146104ab578063fedea023146104c75761018e565b8063a22cb465146103f7578063b88d4fde14610413578063c87b56dd1461042f5761018e565b80637fb3a9a2146103485780638456cb5914610364578063848ba6671461036e578063881649821461038a5780638da5cb5b146103bb57806395d89b41146103d95761018e565b806342842e0e1161014b57806370a082311161012557806370a08231146102bd578063715018a6146102ed5780637686a035146102f75780637c711b27146103155761018e565b806342842e0e146102535780635c975abb1461026f5780636352211e1461028d5761018e565b806301ffc9a71461019357806306fdde03146101c3578063081812fc146101e1578063095ea7b31461021157806323b872dd1461022d5780633f4ba83a14610249575b600080fd5b6101ad60048036038101906101a89190612828565b6104e5565b6040516101ba9190612870565b60405180910390f35b6101cb6105c7565b6040516101d8919061291b565b60405180910390f35b6101fb60048036038101906101f69190612973565b610659565b60405161020891906129e1565b60405180910390f35b61022b60048036038101906102269190612a28565b61069f565b005b61024760048036038101906102429190612a68565b6107b6565b005b610251610816565b005b61026d60048036038101906102689190612a68565b610828565b005b610277610848565b6040516102849190612870565b60405180910390f35b6102a760048036038101906102a29190612973565b61085f565b6040516102b491906129e1565b60405180910390f35b6102d760048036038101906102d29190612abb565b6108e5565b6040516102e49190612af7565b60405180910390f35b6102f561099c565b005b6102ff6109b0565b60405161030c9190612c6a565b60405180910390f35b61032f600480360381019061032a9190612973565b610af7565b60405161033f9493929190612c8c565b60405180910390f35b610362600480360381019061035d9190612e14565b610c67565b005b61036c610c7d565b005b61038860048036038101906103839190612e70565b610c8f565b005b6103a4600480360381019061039f9190612973565b610d56565b6040516103b2929190612ecc565b60405180910390f35b6103c3610e32565b6040516103d091906129e1565b60405180910390f35b6103e1610e5c565b6040516103ee919061291b565b60405180910390f35b610411600480360381019061040c9190612f28565b610eee565b005b61042d60048036038101906104289190613009565b610f04565b005b61044960048036038101906104449190612973565b610f66565b604051610456919061291b565b60405180910390f35b6104796004803603810190610474919061308c565b610f78565b6040516104869190612870565b60405180910390f35b6104a960048036038101906104a491906130cc565b61100c565b005b6104c560048036038101906104c09190612abb565b611137565b005b6104cf6111ba565b6040516104dc9190613292565b60405180910390f35b60007f80ac58cd000000000000000000000000000000000000000000000000000000007bffffffffffffffffffffffffffffffffffffffffffffffffffffffff1916827bffffffffffffffffffffffffffffffffffffffffffffffffffffffff191614806105b057507f5b5e139f000000000000000000000000000000000000000000000000000000007bffffffffffffffffffffffffffffffffffffffffffffffffffffffff1916827bffffffffffffffffffffffffffffffffffffffffffffffffffffffff1916145b806105c057506105bf8261139d565b5b9050919050565b6060600080546105d6906132e3565b80601f0160208091040260200160405190810160405280929190818152602001828054610602906132e3565b801561064f5780601f106106245761010080835404028352916020019161064f565b820191906000526020600020905b81548152906001019060200180831161063257829003601f168201915b5050505050905090565b600061066482611407565b6004600083815260200190815260200160002060009054906101000a900473ffffffffffffffffffffffffffffffffffffffff169050919050565b60006106aa8261085f565b90508073ffffffffffffffffffffffffffffffffffffffff168373ffffffffffffffffffffffffffffffffffffffff160361071a576040517f08c379a000000000000000000000000000000000000000000000000000000000815260040161071190613386565b60405180910390fd5b8073ffffffffffffffffffffffffffffffffffffffff16610739611452565b73ffffffffffffffffffffffffffffffffffffffff161480610768575061076781610762611452565b610f78565b5b6107a7576040517f08c379a000000000000000000000000000000000000000000000000000000000815260040161079e90613418565b60405180910390fd5b6107b1838361145a565b505050565b6107c76107c1611452565b82611513565b610806576040517f08c379a00000000000000000000000000000000000000000000000000000000081526004016107fd906134aa565b60405180910390fd5b6108118383836115a8565b505050565b61081e6118a1565b61082661191f565b565b61084383838360405180602001604052806000815250610f04565b505050565b6000600760009054906101000a900460ff16905090565b60008061086b83611982565b9050600073ffffffffffffffffffffffffffffffffffffffff168173ffffffffffffffffffffffffffffffffffffffff16036108dc576040517f08c379a00000000000000000000000000000000000000000000000000000000081526004016108d390613516565b60405180910390fd5b80915050919050565b60008073ffffffffffffffffffffffffffffffffffffffff168273ffffffffffffffffffffffffffffffffffffffff1603610955576040517f08c379a000000000000000000000000000000000000000000000000000000000815260040161094c906135a8565b60405180910390fd5b600360008373ffffffffffffffffffffffffffffffffffffffff1673ffffffffffffffffffffffffffffffffffffffff168152602001908152602001600020549050919050565b6109a46118a1565b6109ae60006119bf565b565b6060600a805480602002602001604051908101604052809291908181526020016000905b82821015610aee5783829060005260206000209060020201604051806040016040529081600082018054610a07906132e3565b80601f0160208091040260200160405190810160405280929190818152602001828054610a33906132e3565b8015610a805780601f10610a5557610100808354040283529160200191610a80565b820191906000526020600020905b815481529060010190602001808311610a6357829003601f168201915b505050505081526020016001820160009054906101000a900473ffffffffffffffffffffffffffffffffffffffff1673ffffffffffffffffffffffffffffffffffffffff1673ffffffffffffffffffffffffffffffffffffffff1681525050815260200190600101906109d4565b50505050905090565b60098181548110610b0757600080fd5b90600052602060002090600402016000915090508060000160009054906101000a900473ffffffffffffffffffffffffffffffffffffffff1690806001018054610b50906132e3565b80601f0160208091040260200160405190810160405280929190818152602001828054610b7c906132e3565b8015610bc95780601f10610b9e57610100808354040283529160200191610bc9565b820191906000526020600020905b815481529060010190602001808311610bac57829003601f168201915b505050505090806002015490806003018054610be4906132e3565b80601f0160208091040260200160405190810160405280929190818152602001828054610c10906132e3565b8015610c5d5780601f10610c3257610100808354040283529160200191610c5d565b820191906000526020600020905b815481529060010190602001808311610c4057829003601f168201915b5050505050905084565b610c6f6118a1565b610c798282611a85565b5050565b610c856118a1565b610c8d611af2565b565b610c976118a1565b600060405180604001604052808481526020018373ffffffffffffffffffffffffffffffffffffffff168152509050600a8190806001815401808255809150506001900390600052602060002090600202016000909190919091506000820151816000019081610d079190613774565b5060208201518160010160006101000a81548173ffffffffffffffffffffffffffffffffffffffff021916908373ffffffffffffffffffffffffffffffffffffffff1602179055505050505050565b600a8181548110610d6657600080fd5b9060005260206000209060020201600091509050806000018054610d89906132e3565b80601f0160208091040260200160405190810160405280929190818152602001828054610db5906132e3565b8015610e025780601f10610dd757610100808354040283529160200191610e02565b820191906000526020600020905b815481529060010190602001808311610de557829003601f168201915b5050505050908060010160009054906101000a900473ffffffffffffffffffffffffffffffffffffffff16905082565b6000600760019054906101000a900473ffffffffffffffffffffffffffffffffffffffff16905090565b606060018054610e6b906132e3565b80601f0160208091040260200160405190810160405280929190818152602001828054610e97906132e3565b8015610ee45780601f10610eb957610100808354040283529160200191610ee4565b820191906000526020600020905b815481529060010190602001808311610ec757829003601f168201915b5050505050905090565b610f00610ef9611452565b8383611b55565b5050565b610f15610f0f611452565b83611513565b610f54576040517f08c379a0000000000000000000000000000000000000000000000000000000008152600401610f4b906134aa565b60405180910390fd5b610f6084848484611cc1565b50505050565b6060610f7182611d1d565b9050919050565b6000600560008473ffffffffffffffffffffffffffffffffffffffff1673ffffffffffffffffffffffffffffffffffffffff16815260200190815260200160002060008373ffffffffffffffffffffffffffffffffffffffff1673ffffffffffffffffffffffffffffffffffffffff16815260200190815260200160002060009054906101000a900460ff16905092915050565b6110146118a1565b60006110206008611e2f565b9050600060405180608001604052803373ffffffffffffffffffffffffffffffffffffffff1681526020018481526020018381526020018581525090506110676008611e3d565b6110718583611e53565b61107b8284611a85565b600981908060018154018082558091505060019003906000526020600020906004020160009091909190915060008201518160000160006101000a81548173ffffffffffffffffffffffffffffffffffffffff021916908373ffffffffffffffffffffffffffffffffffffffff16021790555060208201518160010190816111039190613774565b506040820151816002015560608201518160030190816111239190613774565b5050506111308486610c8f565b5050505050565b61113f6118a1565b600073ffffffffffffffffffffffffffffffffffffffff168173ffffffffffffffffffffffffffffffffffffffff16036111ae576040517f08c379a00000000000000000000000000000000000000000000000000000000081526004016111a5906138b8565b60405180910390fd5b6111b7816119bf565b50565b60606009805480602002602001604051908101604052809291908181526020016000905b8282101561139457838290600052602060002090600402016040518060800160405290816000820160009054906101000a900473ffffffffffffffffffffffffffffffffffffffff1673ffffffffffffffffffffffffffffffffffffffff1673ffffffffffffffffffffffffffffffffffffffff168152602001600182018054611267906132e3565b80601f0160208091040260200160405190810160405280929190818152602001828054611293906132e3565b80156112e05780601f106112b5576101008083540402835291602001916112e0565b820191906000526020600020905b8154815290600101906020018083116112c357829003601f168201915b5050505050815260200160028201548152602001600382018054611303906132e3565b80601f016020809104026020016040519081016040528092919081815260200182805461132f906132e3565b801561137c5780601f106113515761010080835404028352916020019161137c565b820191906000526020600020905b81548152906001019060200180831161135f57829003601f168201915b505050505081525050815260200190600101906111de565b50505050905090565b60007f01ffc9a7000000000000000000000000000000000000000000000000000000007bffffffffffffffffffffffffffffffffffffffffffffffffffffffff1916827bffffffffffffffffffffffffffffffffffffffffffffffffffffffff1916149050919050565b61141081611e71565b61144f576040517f08c379a000000000000000000000000000000000000000000000000000000000815260040161144690613516565b60405180910390fd5b50565b600033905090565b816004600083815260200190815260200160002060006101000a81548173ffffffffffffffffffffffffffffffffffffffff021916908373ffffffffffffffffffffffffffffffffffffffff160217905550808273ffffffffffffffffffffffffffffffffffffffff166114cd8361085f565b73ffffffffffffffffffffffffffffffffffffffff167f8c5be1e5ebec7d5bd14f71427d1e84f3dd0314c0f7b2291e5b200ac8c7c3b92560405160405180910390a45050565b60008061151f8361085f565b90508073ffffffffffffffffffffffffffffffffffffffff168473ffffffffffffffffffffffffffffffffffffffff16148061156157506115608185610f78565b5b8061159f57508373ffffffffffffffffffffffffffffffffffffffff1661158784610659565b73ffffffffffffffffffffffffffffffffffffffff16145b91505092915050565b8273ffffffffffffffffffffffffffffffffffffffff166115c88261085f565b73ffffffffffffffffffffffffffffffffffffffff161461161e576040517f08c379a00000000000000000000000000000000000000000000000000000000081526004016116159061394a565b60405180910390fd5b600073ffffffffffffffffffffffffffffffffffffffff168273ffffffffffffffffffffffffffffffffffffffff160361168d576040517f08c379a0000000000000000000000000000000000000000000000000000000008152600401611684906139dc565b60405180910390fd5b61169a8383836001611eb2565b8273ffffffffffffffffffffffffffffffffffffffff166116ba8261085f565b73ffffffffffffffffffffffffffffffffffffffff1614611710576040517f08c379a00000000000000000000000000000000000000000000000000000000081526004016117079061394a565b60405180910390fd5b6004600082815260200190815260200160002060006101000a81549073ffffffffffffffffffffffffffffffffffffffff02191690556001600360008573ffffffffffffffffffffffffffffffffffffffff1673ffffffffffffffffffffffffffffffffffffffff168152602001908152602001600020600082825403925050819055506001600360008473ffffffffffffffffffffffffffffffffffffffff1673ffffffffffffffffffffffffffffffffffffffff16815260200190815260200160002060008282540192505081905550816002600083815260200190815260200160002060006101000a81548173ffffffffffffffffffffffffffffffffffffffff021916908373ffffffffffffffffffffffffffffffffffffffff160217905550808273ffffffffffffffffffffffffffffffffffffffff168473ffffffffffffffffffffffffffffffffffffffff167fddf252ad1be2c89b69c2b068fc378daa952ba7f163c4a11628f55a4df523b3ef60405160405180910390a461189c8383836001611f3b565b505050565b6118a9611452565b73ffffffffffffffffffffffffffffffffffffffff166118c7610e32565b73ffffffffffffffffffffffffffffffffffffffff161461191d576040517f08c379a000000000000000000000000000000000000000000000000000000000815260040161191490613a48565b60405180910390fd5b565b611927611f41565b6000600760006101000a81548160ff0219169083151502179055507f5db9ee0a495bf2e6ff9c91a7834c1ba4fdd244a5e8aa4e537bd38aeae4b073aa61196b611452565b60405161197891906129e1565b60405180910390a1565b60006002600083815260200190815260200160002060009054906101000a900473ffffffffffffffffffffffffffffffffffffffff169050919050565b6000600760019054906101000a900473ffffffffffffffffffffffffffffffffffffffff16905081600760016101000a81548173ffffffffffffffffffffffffffffffffffffffff021916908373ffffffffffffffffffffffffffffffffffffffff1602179055508173ffffffffffffffffffffffffffffffffffffffff168173ffffffffffffffffffffffffffffffffffffffff167f8be0079c531659141344cd1fd0a4f28419497f9722a3daafe3b4186f6b6457e060405160405180910390a35050565b611a8e82611e71565b611acd576040517f08c379a0000000000000000000000000000000000000000000000000000000008152600401611ac490613ada565b60405180910390fd5b80600660008481526020019081526020016000209081611aed9190613774565b505050565b611afa611f8a565b6001600760006101000a81548160ff0219169083151502179055507f62e78cea01bee320cd4e420270b5ea74000d11b0c9f74754ebdbfc544b05a258611b3e611452565b604051611b4b91906129e1565b60405180910390a1565b8173ffffffffffffffffffffffffffffffffffffffff168373ffffffffffffffffffffffffffffffffffffffff1603611bc3576040517f08c379a0000000000000000000000000000000000000000000000000000000008152600401611bba90613b46565b60405180910390fd5b80600560008573ffffffffffffffffffffffffffffffffffffffff1673ffffffffffffffffffffffffffffffffffffffff16815260200190815260200160002060008473ffffffffffffffffffffffffffffffffffffffff1673ffffffffffffffffffffffffffffffffffffffff16815260200190815260200160002060006101000a81548160ff0219169083151502179055508173ffffffffffffffffffffffffffffffffffffffff168373ffffffffffffffffffffffffffffffffffffffff167f17307eab39ab6107e8899845ad3d59bd9653f200f220920489ca2b5937696c3183604051611cb49190612870565b60405180910390a3505050565b611ccc8484846115a8565b611cd884848484611fd4565b611d17576040517f08c379a0000000000000000000000000000000000000000000000000000000008152600401611d0e90613bd8565b60405180910390fd5b50505050565b6060611d2882611407565b6000600660008481526020019081526020016000208054611d48906132e3565b80601f0160208091040260200160405190810160405280929190818152602001828054611d74906132e3565b8015611dc15780601f10611d9657610100808354040283529160200191611dc1565b820191906000526020600020905b815481529060010190602001808311611da457829003601f168201915b505050505090506000611dd261215b565b90506000815103611de7578192505050611e2a565b600082511115611e1c578082604051602001611e04929190613c34565b60405160208183030381529060405292505050611e2a565b611e2584612172565b925050505b919050565b600081600001549050919050565b6001816000016000828254019250508190555050565b611e6d8282604051806020016040528060008152506121da565b5050565b60008073ffffffffffffffffffffffffffffffffffffffff16611e9383611982565b73ffffffffffffffffffffffffffffffffffffffff1614159050919050565b611eba611f8a565b600073ffffffffffffffffffffffffffffffffffffffff168473ffffffffffffffffffffffffffffffffffffffff1614611f29576040517f08c379a0000000000000000000000000000000000000000000000000000000008152600401611f2090613ca4565b60405180910390fd5b611f3584848484612235565b50505050565b50505050565b611f49610848565b611f88576040517f08c379a0000000000000000000000000000000000000000000000000000000008152600401611f7f90613d10565b60405180910390fd5b565b611f92610848565b15611fd2576040517f08c379a0000000000000000000000000000000000000000000000000000000008152600401611fc990613d7c565b60405180910390fd5b565b6000611ff58473ffffffffffffffffffffffffffffffffffffffff1661235b565b1561214e578373ffffffffffffffffffffffffffffffffffffffff1663150b7a0261201e611452565b8786866040518563ffffffff1660e01b81526004016120409493929190613df1565b6020604051808303816000875af192505050801561207c57506040513d601f19601f820116820180604052508101906120799190613e52565b60015b6120fe573d80600081146120ac576040519150601f19603f3d011682016040523d82523d6000602084013e6120b1565b606091505b5060008151036120f6576040517f08c379a00000000000000000000000000000000000000000000000000000000081526004016120ed90613bd8565b60405180910390fd5b805181602001fd5b63150b7a0260e01b7bffffffffffffffffffffffffffffffffffffffffffffffffffffffff1916817bffffffffffffffffffffffffffffffffffffffffffffffffffffffff191614915050612153565b600190505b949350505050565b606060405180602001604052806000815250905090565b606061217d82611407565b600061218761215b565b905060008151116121a757604051806020016040528060008152506121d2565b806121b18461237e565b6040516020016121c2929190613c34565b6040516020818303038152906040525b915050919050565b6121e4838361244c565b6121f16000848484611fd4565b612230576040517f08c379a000000000000000000000000000000000000000000000000000000000815260040161222790613bd8565b60405180910390fd5b505050565b600181111561235557600073ffffffffffffffffffffffffffffffffffffffff168473ffffffffffffffffffffffffffffffffffffffff16146122c95780600360008673ffffffffffffffffffffffffffffffffffffffff1673ffffffffffffffffffffffffffffffffffffffff16815260200190815260200160002060008282546122c19190613eae565b925050819055505b600073ffffffffffffffffffffffffffffffffffffffff168373ffffffffffffffffffffffffffffffffffffffff16146123545780600360008573ffffffffffffffffffffffffffffffffffffffff1673ffffffffffffffffffffffffffffffffffffffff168152602001908152602001600020600082825461234c9190613ee2565b925050819055505b5b50505050565b6000808273ffffffffffffffffffffffffffffffffffffffff163b119050919050565b60606000600161238d84612669565b01905060008167ffffffffffffffff8111156123ac576123ab612ce9565b5b6040519080825280601f01601f1916602001820160405280156123de5781602001600182028036833780820191505090505b509050600082602001820190505b600115612441578080600190039150507f3031323334353637383961626364656600000000000000000000000000000000600a86061a8153600a858161243557612434613f16565b5b049450600085036123ec575b819350505050919050565b600073ffffffffffffffffffffffffffffffffffffffff168273ffffffffffffffffffffffffffffffffffffffff16036124bb576040517f08c379a00000000000000000000000000000000000000000000000000000000081526004016124b290613f91565b60405180910390fd5b6124c481611e71565b15612504576040517f08c379a00000000000000000000000000000000000000000000000000000000081526004016124fb90613ffd565b60405180910390fd5b612512600083836001611eb2565b61251b81611e71565b1561255b576040517f08c379a000000000000000000000000000000000000000000000000000000000815260040161255290613ffd565b60405180910390fd5b6001600360008473ffffffffffffffffffffffffffffffffffffffff1673ffffffffffffffffffffffffffffffffffffffff16815260200190815260200160002060008282540192505081905550816002600083815260200190815260200160002060006101000a81548173ffffffffffffffffffffffffffffffffffffffff021916908373ffffffffffffffffffffffffffffffffffffffff160217905550808273ffffffffffffffffffffffffffffffffffffffff16600073ffffffffffffffffffffffffffffffffffffffff167fddf252ad1be2c89b69c2b068fc378daa952ba7f163c4a11628f55a4df523b3ef60405160405180910390a4612665600083836001611f3b565b5050565b600080600090507a184f03e93ff9f4daa797ed6e38ed64bf6a1f01000000000000000083106126c7577a184f03e93ff9f4daa797ed6e38ed64bf6a1f01000000000000000083816126bd576126bc613f16565b5b0492506040810190505b6d04ee2d6d415b85acef81000000008310612704576d04ee2d6d415b85acef810000000083816126fa576126f9613f16565b5b0492506020810190505b662386f26fc10000831061273357662386f26fc10000838161272957612728613f16565b5b0492506010810190505b6305f5e100831061275c576305f5e100838161275257612751613f16565b5b0492506008810190505b612710831061278157612710838161277757612776613f16565b5b0492506004810190505b606483106127a4576064838161279a57612799613f16565b5b0492506002810190505b600a83106127b3576001810190505b80915050919050565b6000604051905090565b600080fd5b600080fd5b60007fffffffff0000000000000000000000000000000000000000000000000000000082169050919050565b612805816127d0565b811461281057600080fd5b50565b600081359050612822816127fc565b92915050565b60006020828403121561283e5761283d6127c6565b5b600061284c84828501612813565b91505092915050565b60008115159050919050565b61286a81612855565b82525050565b60006020820190506128856000830184612861565b92915050565b600081519050919050565b600082825260208201905092915050565b60005b838110156128c55780820151818401526020810190506128aa565b60008484015250505050565b6000601f19601f8301169050919050565b60006128ed8261288b565b6128f78185612896565b93506129078185602086016128a7565b612910816128d1565b840191505092915050565b6000602082019050818103600083015261293581846128e2565b905092915050565b6000819050919050565b6129508161293d565b811461295b57600080fd5b50565b60008135905061296d81612947565b92915050565b600060208284031215612989576129886127c6565b5b60006129978482850161295e565b91505092915050565b600073ffffffffffffffffffffffffffffffffffffffff82169050919050565b60006129cb826129a0565b9050919050565b6129db816129c0565b82525050565b60006020820190506129f660008301846129d2565b92915050565b612a05816129c0565b8114612a1057600080fd5b50565b600081359050612a22816129fc565b92915050565b60008060408385031215612a3f57612a3e6127c6565b5b6000612a4d85828601612a13565b9250506020612a5e8582860161295e565b9150509250929050565b600080600060608486031215612a8157612a806127c6565b5b6000612a8f86828701612a13565b9350506020612aa086828701612a13565b9250506040612ab18682870161295e565b9150509250925092565b600060208284031215612ad157612ad06127c6565b5b6000612adf84828501612a13565b91505092915050565b612af18161293d565b82525050565b6000602082019050612b0c6000830184612ae8565b92915050565b600081519050919050565b600082825260208201905092915050565b6000819050602082019050919050565b600082825260208201905092915050565b6000612b5a8261288b565b612b648185612b3e565b9350612b748185602086016128a7565b612b7d816128d1565b840191505092915050565b612b91816129c0565b82525050565b60006040830160008301518482036000860152612bb48282612b4f565b9150506020830151612bc96020860182612b88565b508091505092915050565b6000612be08383612b97565b905092915050565b6000602082019050919050565b6000612c0082612b12565b612c0a8185612b1d565b935083602082028501612c1c85612b2e565b8060005b85811015612c585784840389528151612c398582612bd4565b9450612c4483612be8565b925060208a01995050600181019050612c20565b50829750879550505050505092915050565b60006020820190508181036000830152612c848184612bf5565b905092915050565b6000608082019050612ca160008301876129d2565b8181036020830152612cb381866128e2565b9050612cc26040830185612ae8565b8181036060830152612cd481846128e2565b905095945050505050565b600080fd5b600080fd5b7f4e487b7100000000000000000000000000000000000000000000000000000000600052604160045260246000fd5b612d21826128d1565b810181811067ffffffffffffffff82111715612d4057612d3f612ce9565b5b80604052505050565b6000612d536127bc565b9050612d5f8282612d18565b919050565b600067ffffffffffffffff821115612d7f57612d7e612ce9565b5b612d88826128d1565b9050602081019050919050565b82818337600083830152505050565b6000612db7612db284612d64565b612d49565b905082815260208101848484011115612dd357612dd2612ce4565b5b612dde848285612d95565b509392505050565b600082601f830112612dfb57612dfa612cdf565b5b8135612e0b848260208601612da4565b91505092915050565b60008060408385031215612e2b57612e2a6127c6565b5b6000612e398582860161295e565b925050602083013567ffffffffffffffff811115612e5a57612e596127cb565b5b612e6685828601612de6565b9150509250929050565b60008060408385031215612e8757612e866127c6565b5b600083013567ffffffffffffffff811115612ea557612ea46127cb565b5b612eb185828601612de6565b9250506020612ec285828601612a13565b9150509250929050565b60006040820190508181036000830152612ee681856128e2565b9050612ef560208301846129d2565b9392505050565b612f0581612855565b8114612f1057600080fd5b50565b600081359050612f2281612efc565b92915050565b60008060408385031215612f3f57612f3e6127c6565b5b6000612f4d85828601612a13565b9250506020612f5e85828601612f13565b9150509250929050565b600067ffffffffffffffff821115612f8357612f82612ce9565b5b612f8c826128d1565b9050602081019050919050565b6000612fac612fa784612f68565b612d49565b905082815260208101848484011115612fc857612fc7612ce4565b5b612fd3848285612d95565b509392505050565b600082601f830112612ff057612fef612cdf565b5b8135613000848260208601612f99565b91505092915050565b60008060008060808587031215613023576130226127c6565b5b600061303187828801612a13565b945050602061304287828801612a13565b93505060406130538782880161295e565b925050606085013567ffffffffffffffff811115613074576130736127cb565b5b61308087828801612fdb565b91505092959194509250565b600080604083850312156130a3576130a26127c6565b5b60006130b185828601612a13565b92505060206130c285828601612a13565b9150509250929050565b6000806000606084860312156130e5576130e46127c6565b5b60006130f386828701612a13565b935050602084013567ffffffffffffffff811115613114576131136127cb565b5b61312086828701612de6565b925050604084013567ffffffffffffffff811115613141576131406127cb565b5b61314d86828701612de6565b9150509250925092565b600081519050919050565b600082825260208201905092915050565b6000819050602082019050919050565b61318c8161293d565b82525050565b60006080830160008301516131aa6000860182612b88565b50602083015184820360208601526131c28282612b4f565b91505060408301516131d76040860182613183565b50606083015184820360608601526131ef8282612b4f565b9150508091505092915050565b60006132088383613192565b905092915050565b6000602082019050919050565b600061322882613157565b6132328185613162565b93508360208202850161324485613173565b8060005b85811015613280578484038952815161326185826131fc565b945061326c83613210565b925060208a01995050600181019050613248565b50829750879550505050505092915050565b600060208201905081810360008301526132ac818461321d565b905092915050565b7f4e487b7100000000000000000000000000000000000000000000000000000000600052602260045260246000fd5b600060028204905060018216806132fb57607f821691505b60208210810361330e5761330d6132b4565b5b50919050565b7f4552433732313a20617070726f76616c20746f2063757272656e74206f776e6560008201527f7200000000000000000000000000000000000000000000000000000000000000602082015250565b6000613370602183612896565b915061337b82613314565b604082019050919050565b6000602082019050818103600083015261339f81613363565b9050919050565b7f4552433732313a20617070726f76652063616c6c6572206973206e6f7420746f60008201527f6b656e206f776e6572206f7220617070726f76656420666f7220616c6c000000602082015250565b6000613402603d83612896565b915061340d826133a6565b604082019050919050565b60006020820190508181036000830152613431816133f5565b9050919050565b7f4552433732313a2063616c6c6572206973206e6f7420746f6b656e206f776e6560008201527f72206f7220617070726f76656400000000000000000000000000000000000000602082015250565b6000613494602d83612896565b915061349f82613438565b604082019050919050565b600060208201905081810360008301526134c381613487565b9050919050565b7f4552433732313a20696e76616c696420746f6b656e2049440000000000000000600082015250565b6000613500601883612896565b915061350b826134ca565b602082019050919050565b6000602082019050818103600083015261352f816134f3565b9050919050565b7f4552433732313a2061646472657373207a65726f206973206e6f74206120766160008201527f6c6964206f776e65720000000000000000000000000000000000000000000000602082015250565b6000613592602983612896565b915061359d82613536565b604082019050919050565b600060208201905081810360008301526135c181613585565b9050919050565b60008190508160005260206000209050919050565b60006020601f8301049050919050565b600082821b905092915050565b60006008830261362a7fffffffffffffffffffffffffffffffffffffffffffffffffffffffffffffffff826135ed565b61363486836135ed565b95508019841693508086168417925050509392505050565b6000819050919050565b600061367161366c6136678461293d565b61364c565b61293d565b9050919050565b6000819050919050565b61368b83613656565b61369f61369782613678565b8484546135fa565b825550505050565b600090565b6136b46136a7565b6136bf818484613682565b505050565b5b818110156136e3576136d86000826136ac565b6001810190506136c5565b5050565b601f821115613728576136f9816135c8565b613702846135dd565b81016020851015613711578190505b61372561371d856135dd565b8301826136c4565b50505b505050565b600082821c905092915050565b600061374b6000198460080261372d565b1980831691505092915050565b6000613764838361373a565b9150826002028217905092915050565b61377d8261288b565b67ffffffffffffffff81111561379657613795612ce9565b5b6137a082546132e3565b6137ab8282856136e7565b600060209050601f8311600181146137de57600084156137cc578287015190505b6137d68582613758565b86555061383e565b601f1984166137ec866135c8565b60005b82811015613814578489015182556001820191506020850194506020810190506137ef565b86831015613831578489015161382d601f89168261373a565b8355505b6001600288020188555050505b505050505050565b7f4f776e61626c653a206e6577206f776e657220697320746865207a65726f206160008201527f6464726573730000000000000000000000000000000000000000000000000000602082015250565b60006138a2602683612896565b91506138ad82613846565b604082019050919050565b600060208201905081810360008301526138d181613895565b9050919050565b7f4552433732313a207472616e736665722066726f6d20696e636f72726563742060008201527f6f776e6572000000000000000000000000000000000000000000000000000000602082015250565b6000613934602583612896565b915061393f826138d8565b604082019050919050565b6000602082019050818103600083015261396381613927565b9050919050565b7f4552433732313a207472616e7366657220746f20746865207a65726f2061646460008201527f7265737300000000000000000000000000000000000000000000000000000000602082015250565b60006139c6602483612896565b91506139d18261396a565b604082019050919050565b600060208201905081810360008301526139f5816139b9565b9050919050565b7f4f776e61626c653a2063616c6c6572206973206e6f7420746865206f776e6572600082015250565b6000613a32602083612896565b9150613a3d826139fc565b602082019050919050565b60006020820190508181036000830152613a6181613a25565b9050919050565b7f45524337323155524953746f726167653a2055524920736574206f66206e6f6e60008201527f6578697374656e7420746f6b656e000000000000000000000000000000000000602082015250565b6000613ac4602e83612896565b9150613acf82613a68565b604082019050919050565b60006020820190508181036000830152613af381613ab7565b9050919050565b7f4552433732313a20617070726f766520746f2063616c6c657200000000000000600082015250565b6000613b30601983612896565b9150613b3b82613afa565b602082019050919050565b60006020820190508181036000830152613b5f81613b23565b9050919050565b7f4552433732313a207472616e7366657220746f206e6f6e20455243373231526560008201527f63656976657220696d706c656d656e7465720000000000000000000000000000602082015250565b6000613bc2603283612896565b9150613bcd82613b66565b604082019050919050565b60006020820190508181036000830152613bf181613bb5565b9050919050565b600081905092915050565b6000613c0e8261288b565b613c188185613bf8565b9350613c288185602086016128a7565b80840191505092915050565b6000613c408285613c03565b9150613c4c8284613c03565b91508190509392505050565b7f4572723a20746f6b656e20697320534f554c20424f554e440000000000000000600082015250565b6000613c8e601883612896565b9150613c9982613c58565b602082019050919050565b60006020820190508181036000830152613cbd81613c81565b9050919050565b7f5061757361626c653a206e6f7420706175736564000000000000000000000000600082015250565b6000613cfa601483612896565b9150613d0582613cc4565b602082019050919050565b60006020820190508181036000830152613d2981613ced565b9050919050565b7f5061757361626c653a2070617573656400000000000000000000000000000000600082015250565b6000613d66601083612896565b9150613d7182613d30565b602082019050919050565b60006020820190508181036000830152613d9581613d59565b9050919050565b600081519050919050565b600082825260208201905092915050565b6000613dc382613d9c565b613dcd8185613da7565b9350613ddd8185602086016128a7565b613de6816128d1565b840191505092915050565b6000608082019050613e0660008301876129d2565b613e1360208301866129d2565b613e206040830185612ae8565b8181036060830152613e328184613db8565b905095945050505050565b600081519050613e4c816127fc565b92915050565b600060208284031215613e6857613e676127c6565b5b6000613e7684828501613e3d565b91505092915050565b7f4e487b7100000000000000000000000000000000000000000000000000000000600052601160045260246000fd5b6000613eb98261293d565b9150613ec48361293d565b9250828203905081811115613edc57613edb613e7f565b5b92915050565b6000613eed8261293d565b9150613ef88361293d565b9250828201905080821115613f1057613f0f613e7f565b5b92915050565b7f4e487b7100000000000000000000000000000000000000000000000000000000600052601260045260246000fd5b7f4552433732313a206d696e7420746f20746865207a65726f2061646472657373600082015250565b6000613f7b602083612896565b9150613f8682613f45565b602082019050919050565b60006020820190508181036000830152613faa81613f6e565b9050919050565b7f4552433732313a20746f6b656e20616c7265616479206d696e74656400000000600082015250565b6000613fe7601c83612896565b9150613ff282613fb1565b602082019050919050565b6000602082019050818103600083015261401681613fda565b905091905056fea264697066735822122047b8c99eb87fbba8aabe35a62e60892b9fe413c6a797d2eef93b23fe0d55e9b264736f6c63430008110033",
  "linkReferences": {},
  "deployedLinkReferences": {}
}